{
  "_format": "hh-sol-artifact-1",
  "contractName": "TokenExchange",
  "sourceName": "contracts/exchange.sol",
  "abi": [
    {
      "inputs": [],
      "stateMutability": "nonpayable",
      "type": "constructor"
    },
    {
      "anonymous": false,
      "inputs": [
        {
          "indexed": true,
          "internalType": "address",
          "name": "previousOwner",
          "type": "address"
        },
        {
          "indexed": true,
          "internalType": "address",
          "name": "newOwner",
          "type": "address"
        }
      ],
      "name": "OwnershipTransferred",
      "type": "event"
    },
    {
      "inputs": [
        {
          "internalType": "uint256",
          "name": "max_exchange_rate",
          "type": "uint256"
        },
        {
          "internalType": "uint256",
          "name": "min_exchange_rate",
          "type": "uint256"
        }
      ],
      "name": "addLiquidity",
      "outputs": [],
      "stateMutability": "payable",
      "type": "function"
    },
    {
      "inputs": [
        {
          "internalType": "uint256",
          "name": "amountTokens",
          "type": "uint256"
        }
      ],
      "name": "createPool",
      "outputs": [],
      "stateMutability": "payable",
      "type": "function"
    },
    {
      "inputs": [],
      "name": "exchange_name",
      "outputs": [
        {
          "internalType": "string",
          "name": "",
          "type": "string"
        }
      ],
      "stateMutability": "view",
      "type": "function"
    },
    {
      "inputs": [],
      "name": "getExchangeRate",
      "outputs": [
        {
          "internalType": "uint256",
          "name": "",
          "type": "uint256"
        },
        {
          "internalType": "uint256",
          "name": "",
          "type": "uint256"
        }
      ],
      "stateMutability": "view",
      "type": "function"
    },
    {
      "inputs": [],
      "name": "getSwapFee",
      "outputs": [
        {
          "internalType": "uint256",
          "name": "",
          "type": "uint256"
        },
        {
          "internalType": "uint256",
          "name": "",
          "type": "uint256"
        }
      ],
      "stateMutability": "view",
      "type": "function"
    },
    {
      "inputs": [],
      "name": "owner",
      "outputs": [
        {
          "internalType": "address",
          "name": "",
          "type": "address"
        }
      ],
      "stateMutability": "view",
      "type": "function"
    },
    {
      "inputs": [
        {
          "internalType": "uint256",
          "name": "max_exchange_rate",
          "type": "uint256"
        },
        {
          "internalType": "uint256",
          "name": "min_exchange_rate",
          "type": "uint256"
        }
      ],
      "name": "removeAllLiquidity",
      "outputs": [],
      "stateMutability": "payable",
      "type": "function"
    },
    {
      "inputs": [
        {
          "internalType": "uint256",
          "name": "amountETH",
          "type": "uint256"
        },
        {
          "internalType": "uint256",
          "name": "max_exchange_rate",
          "type": "uint256"
        },
        {
          "internalType": "uint256",
          "name": "min_exchange_rate",
          "type": "uint256"
        }
      ],
      "name": "removeLiquidity",
      "outputs": [],
      "stateMutability": "payable",
      "type": "function"
    },
    {
      "inputs": [],
      "name": "renounceOwnership",
      "outputs": [],
      "stateMutability": "nonpayable",
      "type": "function"
    },
    {
      "inputs": [
        {
          "internalType": "uint256",
          "name": "max_exchange_rate",
          "type": "uint256"
        }
      ],
      "name": "swapETHForTokens",
      "outputs": [],
      "stateMutability": "payable",
      "type": "function"
    },
    {
      "inputs": [
        {
          "internalType": "uint256",
          "name": "amountTokens",
          "type": "uint256"
        },
        {
          "internalType": "uint256",
          "name": "max_exchange_rate",
          "type": "uint256"
        }
      ],
      "name": "swapTokensForETH",
      "outputs": [],
      "stateMutability": "payable",
      "type": "function"
    },
    {
      "inputs": [],
      "name": "token",
      "outputs": [
        {
          "internalType": "contract Token",
          "name": "",
          "type": "address"
        }
      ],
      "stateMutability": "view",
      "type": "function"
    },
    {
      "inputs": [
        {
          "internalType": "address",
          "name": "newOwner",
          "type": "address"
        }
      ],
      "name": "transferOwnership",
      "outputs": [],
      "stateMutability": "nonpayable",
      "type": "function"
    }
  ],
  "bytecode": "0x60806040526040518060400160405280600a81526020017f486172616d626520457800000000000000000000000000000000000000000000815250600190816200004a919062000496565b5073e7f1725e7734ce288f8367e1bb143e90bb3f0512600260006101000a81548173ffffffffffffffffffffffffffffffffffffffff021916908373ffffffffffffffffffffffffffffffffffffffff160217905550600260009054906101000a900473ffffffffffffffffffffffffffffffffffffffff16600360006101000a81548173ffffffffffffffffffffffffffffffffffffffff021916908373ffffffffffffffffffffffffffffffffffffffff16021790555060006004556000600555600060085560006009556000600b553480156200012957600080fd5b506200014a6200013e6200015060201b60201c565b6200015860201b60201c565b6200057d565b600033905090565b60008060009054906101000a900473ffffffffffffffffffffffffffffffffffffffff169050816000806101000a81548173ffffffffffffffffffffffffffffffffffffffff021916908373ffffffffffffffffffffffffffffffffffffffff1602179055508173ffffffffffffffffffffffffffffffffffffffff168173ffffffffffffffffffffffffffffffffffffffff167f8be0079c531659141344cd1fd0a4f28419497f9722a3daafe3b4186f6b6457e060405160405180910390a35050565b600081519050919050565b7f4e487b7100000000000000000000000000000000000000000000000000000000600052604160045260246000fd5b7f4e487b7100000000000000000000000000000000000000000000000000000000600052602260045260246000fd5b600060028204905060018216806200029e57607f821691505b602082108103620002b457620002b362000256565b5b50919050565b60008190508160005260206000209050919050565b60006020601f8301049050919050565b600082821b905092915050565b6000600883026200031e7fffffffffffffffffffffffffffffffffffffffffffffffffffffffffffffffff82620002df565b6200032a8683620002df565b95508019841693508086168417925050509392505050565b6000819050919050565b6000819050919050565b600062000377620003716200036b8462000342565b6200034c565b62000342565b9050919050565b6000819050919050565b620003938362000356565b620003ab620003a2826200037e565b848454620002ec565b825550505050565b600090565b620003c2620003b3565b620003cf81848462000388565b505050565b5b81811015620003f757620003eb600082620003b8565b600181019050620003d5565b5050565b601f82111562000446576200041081620002ba565b6200041b84620002cf565b810160208510156200042b578190505b620004436200043a85620002cf565b830182620003d4565b50505b505050565b600082821c905092915050565b60006200046b600019846008026200044b565b1980831691505092915050565b600062000486838362000458565b9150826002028217905092915050565b620004a1826200021c565b67ffffffffffffffff811115620004bd57620004bc62000227565b5b620004c9825462000285565b620004d6828285620003fb565b600060209050601f8311600181146200050e5760008415620004f9578287015190505b62000505858262000478565b86555062000575565b601f1984166200051e86620002ba565b60005b82811015620005485784890151825560018201915060208501945060208101905062000521565b8683101562000568578489015162000564601f89168262000458565b8355505b6001600288020188555050505b505050505050565b612804806200058d6000396000f3fe6080604052600436106100c25760003560e01c80639cd441da1161007f578063e6aa216c11610059578063e6aa216c146101dd578063f2fde38b14610209578063f694f7d114610232578063fc0c546a1461025d576100c2565b80639cd441da14610179578063a22280a614610195578063d4cadf68146101b1576100c2565b80632eab2841146100c757806358ad6de4146100e3578063715018a6146100ff5780638259e6a014610116578063857620e1146101325780638da5cb5b1461014e575b600080fd5b6100e160048036038101906100dc9190611ef4565b610288565b005b6100fd60048036038101906100f89190611f21565b61050d565b005b34801561010b57600080fd5b5061011461087d565b005b610130600480360381019061012b9190611ef4565b610891565b005b61014c60048036038101906101479190611f61565b610bf2565b005b34801561015a57600080fd5b506101636110a2565b6040516101709190611ff5565b60405180910390f35b610193600480360381019061018e9190611f21565b6110cb565b005b6101af60048036038101906101aa9190611f21565b611760565b005b3480156101bd57600080fd5b506101c66119e6565b6040516101d492919061201f565b60405180910390f35b3480156101e957600080fd5b506101f26119f7565b60405161020092919061201f565b60405180910390f35b34801561021557600080fd5b50610230600480360381019061022b9190612074565b611add565b005b34801561023e57600080fd5b50610247611b60565b6040516102549190612131565b60405180910390f35b34801561026957600080fd5b50610272611bee565b60405161027f91906121b2565b60405180910390f35b6000344761029691906121fc565b600a546102a3919061225f565b600360009054906101000a900473ffffffffffffffffffffffffffffffffffffffff1673ffffffffffffffffffffffffffffffffffffffff166370a08231306040518263ffffffff1660e01b81526004016102fe9190611ff5565b602060405180830381865afa15801561031b573d6000803e3d6000fd5b505050506040513d601f19601f8201168201806040525081019061033f91906122a5565b61034991906122d2565b9050818134610358919061225f565b111561036757610366612306565b5b600360009054906101000a900473ffffffffffffffffffffffffffffffffffffffff1673ffffffffffffffffffffffffffffffffffffffff166323b872dd3330346040518463ffffffff1660e01b81526004016103c693929190612335565b6020604051808303816000875af11580156103e5573d6000803e3d6000fd5b505050506040513d601f19601f8201168201806040525081019061040991906123a4565b503373ffffffffffffffffffffffffffffffffffffffff166108fc349081150290604051600060405180830381858888f19350505050158015610450573d6000803e3d6000fd5b50600a54600360009054906101000a900473ffffffffffffffffffffffffffffffffffffffff1673ffffffffffffffffffffffffffffffffffffffff166370a08231306040518263ffffffff1660e01b81526004016104af9190611ff5565b602060405180830381865afa1580156104cc573d6000803e3d6000fd5b505050506040513d601f19601f820116820180604052508101906104f091906122a5565b476104fb91906123d1565b1461050957610508612306565b5b5050565b8047600360009054906101000a900473ffffffffffffffffffffffffffffffffffffffff1673ffffffffffffffffffffffffffffffffffffffff166370a08231306040518263ffffffff1660e01b815260040161056a9190611ff5565b602060405180830381865afa158015610587573d6000803e3d6000fd5b505050506040513d601f19601f820116820180604052508101906105ab91906122a5565b6105b5919061225f565b10156105c057600080fd5b8147600360009054906101000a900473ffffffffffffffffffffffffffffffffffffffff1673ffffffffffffffffffffffffffffffffffffffff166370a08231306040518263ffffffff1660e01b815260040161061d9190611ff5565b602060405180830381865afa15801561063a573d6000803e3d6000fd5b505050506040513d601f19601f8201168201806040525081019061065e91906122a5565b610668919061225f565b111561067357600080fd5b6000600660003373ffffffffffffffffffffffffffffffffffffffff1673ffffffffffffffffffffffffffffffffffffffff168152602001908152602001600020549050600047600b54836106c8919061225f565b6106d291906123d1565b90506000600360009054906101000a900473ffffffffffffffffffffffffffffffffffffffff1673ffffffffffffffffffffffffffffffffffffffff166370a08231306040518263ffffffff1660e01b81526004016107319190611ff5565b602060405180830381865afa15801561074e573d6000803e3d6000fd5b505050506040513d601f19601f8201168201806040525081019061077291906122a5565b600b5484610780919061225f565b61078a91906123d1565b9050600360009054906101000a900473ffffffffffffffffffffffffffffffffffffffff1673ffffffffffffffffffffffffffffffffffffffff166323b872dd3033846040518463ffffffff1660e01b81526004016107eb93929190612335565b6020604051808303816000875af115801561080a573d6000803e3d6000fd5b505050506040513d601f19601f8201168201806040525081019061082e91906123a4565b503073ffffffffffffffffffffffffffffffffffffffff166108fc839081150290604051600060405180830381858888f19350505050158015610875573d6000803e3d6000fd5b505050505050565b610885611c14565b61088f6000611c92565b565b610899611c14565b6000600454146108de576040517f08c379a00000000000000000000000000000000000000000000000000000000081526004016108d59061245f565b60405180910390fd5b600060055414610923576040517f08c379a000000000000000000000000000000000000000000000000000000000815260040161091a906124cb565b60405180910390fd5b60003411610966576040517f08c379a000000000000000000000000000000000000000000000000000000000815260040161095d90612537565b60405180910390fd5b6000600360009054906101000a900473ffffffffffffffffffffffffffffffffffffffff1673ffffffffffffffffffffffffffffffffffffffff166370a08231336040518263ffffffff1660e01b81526004016109c39190611ff5565b602060405180830381865afa1580156109e0573d6000803e3d6000fd5b505050506040513d601f19601f82011682018060405250810190610a0491906122a5565b905080821115610a49576040517f08c379a0000000000000000000000000000000000000000000000000000000008152600401610a40906125c9565b60405180910390fd5b60008211610a8c576040517f08c379a0000000000000000000000000000000000000000000000000000000008152600401610a8390612635565b60405180910390fd5b600360009054906101000a900473ffffffffffffffffffffffffffffffffffffffff1673ffffffffffffffffffffffffffffffffffffffff166323b872dd3330856040518463ffffffff1660e01b8152600401610aeb93929190612335565b6020604051808303816000875af1158015610b0a573d6000803e3d6000fd5b505050506040513d601f19601f82011682018060405250810190610b2e91906123a4565b50600360009054906101000a900473ffffffffffffffffffffffffffffffffffffffff1673ffffffffffffffffffffffffffffffffffffffff166370a08231306040518263ffffffff1660e01b8152600401610b8a9190611ff5565b602060405180830381865afa158015610ba7573d6000803e3d6000fd5b505050506040513d601f19601f82011682018060405250810190610bcb91906122a5565b60048190555034600581905550600554600454610be891906123d1565b600a819055505050565b47831115610c0357610c02612306565b5b60004784610c11919061225f565b90508147600360009054906101000a900473ffffffffffffffffffffffffffffffffffffffff1673ffffffffffffffffffffffffffffffffffffffff166370a08231306040518263ffffffff1660e01b8152600401610c709190611ff5565b602060405180830381865afa158015610c8d573d6000803e3d6000fd5b505050506040513d601f19601f82011682018060405250810190610cb191906122a5565b610cbb919061225f565b1015610cc657600080fd5b8247600360009054906101000a900473ffffffffffffffffffffffffffffffffffffffff1673ffffffffffffffffffffffffffffffffffffffff166370a08231306040518263ffffffff1660e01b8152600401610d239190611ff5565b602060405180830381865afa158015610d40573d6000803e3d6000fd5b505050506040513d601f19601f82011682018060405250810190610d6491906122a5565b610d6e919061225f565b1115610d7957600080fd5b6000600360009054906101000a900473ffffffffffffffffffffffffffffffffffffffff1673ffffffffffffffffffffffffffffffffffffffff166370a08231306040518263ffffffff1660e01b8152600401610dd69190611ff5565b602060405180830381865afa158015610df3573d6000803e3d6000fd5b505050506040513d601f19601f82011682018060405250810190610e1791906122a5565b600b5483610e25919061225f565b610e2f91906123d1565b9050600360009054906101000a900473ffffffffffffffffffffffffffffffffffffffff1673ffffffffffffffffffffffffffffffffffffffff166370a08231336040518263ffffffff1660e01b8152600401610e8c9190611ff5565b602060405180830381865afa158015610ea9573d6000803e3d6000fd5b505050506040513d601f19601f82011682018060405250810190610ecd91906122a5565b811115610edd57610edc612306565b5b600660003373ffffffffffffffffffffffffffffffffffffffff1673ffffffffffffffffffffffffffffffffffffffff16815260200190815260200160002054821115610f2d57610f2c612306565b5b3373ffffffffffffffffffffffffffffffffffffffff1631851115610f5557610f54612306565b5b81600b54610f6391906122d2565b600b819055508460056000828254610f7b91906122d2565b925050819055508060046000828254610f9491906122d2565b92505081905550600554600454610fab91906123d1565b600a81905550600360009054906101000a900473ffffffffffffffffffffffffffffffffffffffff1673ffffffffffffffffffffffffffffffffffffffff166323b872dd3033846040518463ffffffff1660e01b815260040161101093929190612335565b6020604051808303816000875af115801561102f573d6000803e3d6000fd5b505050506040513d601f19601f8201168201806040525081019061105391906123a4565b503373ffffffffffffffffffffffffffffffffffffffff166108fc349081150290604051600060405180830381858888f1935050505015801561109a573d6000803e3d6000fd5b505050505050565b60008060009054906101000a900473ffffffffffffffffffffffffffffffffffffffff16905090565b8047600360009054906101000a900473ffffffffffffffffffffffffffffffffffffffff1673ffffffffffffffffffffffffffffffffffffffff166370a08231306040518263ffffffff1660e01b81526004016111289190611ff5565b602060405180830381865afa158015611145573d6000803e3d6000fd5b505050506040513d601f19601f8201168201806040525081019061116991906122a5565b611173919061225f565b101561117e57600080fd5b8147600360009054906101000a900473ffffffffffffffffffffffffffffffffffffffff1673ffffffffffffffffffffffffffffffffffffffff166370a08231306040518263ffffffff1660e01b81526004016111db9190611ff5565b602060405180830381865afa1580156111f8573d6000803e3d6000fd5b505050506040513d601f19601f8201168201806040525081019061121c91906122a5565b611226919061225f565b111561123157600080fd5b600047600360009054906101000a900473ffffffffffffffffffffffffffffffffffffffff1673ffffffffffffffffffffffffffffffffffffffff166370a08231306040518263ffffffff1660e01b815260040161128f9190611ff5565b602060405180830381865afa1580156112ac573d6000803e3d6000fd5b505050506040513d601f19601f820116820180604052508101906112d091906122a5565b346112db91906123d1565b6112e5919061225f565b9050600360009054906101000a900473ffffffffffffffffffffffffffffffffffffffff1673ffffffffffffffffffffffffffffffffffffffff166370a08231306040518263ffffffff1660e01b81526004016113429190611ff5565b602060405180830381865afa15801561135f573d6000803e3d6000fd5b505050506040513d601f19601f8201168201806040525081019061138391906122a5565b81111561138f57600080fd5b3373ffffffffffffffffffffffffffffffffffffffff16313411156113b357600080fd5b600360009054906101000a900473ffffffffffffffffffffffffffffffffffffffff1673ffffffffffffffffffffffffffffffffffffffff166323b872dd3330846040518463ffffffff1660e01b815260040161141293929190612335565b6020604051808303816000875af1158015611431573d6000803e3d6000fd5b505050506040513d601f19601f8201168201806040525081019061145591906123a4565b503073ffffffffffffffffffffffffffffffffffffffff166108fc349081150290604051600060405180830381858888f1935050505015801561149c573d6000803e3d6000fd5b506114a634611d56565b6114e46040518060400160405280601981526020017f7472616e73666572656420746f6b656e7320616e642065746800000000000000815250611def565b6000600b5447346114f5919061225f565b6114ff91906123d1565b905080600b5461150f91906121fc565b600b819055506000600660003373ffffffffffffffffffffffffffffffffffffffff1673ffffffffffffffffffffffffffffffffffffffff16815260200190815260200160002054036115c0576007339080600181540180825580915050600190039060005260206000200160009091909190916101000a81548173ffffffffffffffffffffffffffffffffffffffff021916908373ffffffffffffffffffffffffffffffffffffffff1602179055505b80600660003373ffffffffffffffffffffffffffffffffffffffff1673ffffffffffffffffffffffffffffffffffffffff1681526020019081526020016000205461160b91906121fc565b600660003373ffffffffffffffffffffffffffffffffffffffff1673ffffffffffffffffffffffffffffffffffffffff16815260200190815260200160002081905550611696600660003373ffffffffffffffffffffffffffffffffffffffff1673ffffffffffffffffffffffffffffffffffffffff16815260200190815260200160002054611d56565b6116d46040518060400160405280601181526020017f75706461746564206c7020746f6b656e73000000000000000000000000000000815250611def565b34600560008282546116e691906121fc565b9250508190555081600460008282546116ff91906121fc565b9250508190555060055460045461171691906123d1565b600a8190555061175a6040518060400160405280600c81526020017f66696e6973686564206164640000000000000000000000000000000000000000815250611def565b50505050565b600082600360009054906101000a900473ffffffffffffffffffffffffffffffffffffffff1673ffffffffffffffffffffffffffffffffffffffff166370a08231306040518263ffffffff1660e01b81526004016117be9190611ff5565b602060405180830381865afa1580156117db573d6000803e3d6000fd5b505050506040513d601f19601f820116820180604052508101906117ff91906122a5565b61180991906121fc565b600a54611816919061225f565b4761182191906122d2565b9050818184611830919061225f565b111561183f5761183e612306565b5b600360009054906101000a900473ffffffffffffffffffffffffffffffffffffffff1673ffffffffffffffffffffffffffffffffffffffff166323b872dd3330866040518463ffffffff1660e01b815260040161189e93929190612335565b6020604051808303816000875af11580156118bd573d6000803e3d6000fd5b505050506040513d601f19601f820116820180604052508101906118e191906123a4565b503073ffffffffffffffffffffffffffffffffffffffff166108fc349081150290604051600060405180830381858888f19350505050158015611928573d6000803e3d6000fd5b50600a54600360009054906101000a900473ffffffffffffffffffffffffffffffffffffffff1673ffffffffffffffffffffffffffffffffffffffff166370a08231306040518263ffffffff1660e01b81526004016119879190611ff5565b602060405180830381865afa1580156119a4573d6000803e3d6000fd5b505050506040513d601f19601f820116820180604052508101906119c891906122a5565b476119d391906123d1565b146119e1576119e0612306565b5b505050565b600080600854600954915091509091565b600080611a386040518060400160405280601581526020017f67657474696e672065786368616e676520726174650000000000000000000000815250611def565b600360009054906101000a900473ffffffffffffffffffffffffffffffffffffffff1673ffffffffffffffffffffffffffffffffffffffff166370a08231306040518263ffffffff1660e01b8152600401611a939190611ff5565b602060405180830381865afa158015611ab0573d6000803e3d6000fd5b505050506040513d601f19601f82011682018060405250810190611ad491906122a5565b47915091509091565b611ae5611c14565b600073ffffffffffffffffffffffffffffffffffffffff168173ffffffffffffffffffffffffffffffffffffffff1603611b54576040517f08c379a0000000000000000000000000000000000000000000000000000000008152600401611b4b906126c7565b60405180910390fd5b611b5d81611c92565b50565b60018054611b6d90612716565b80601f0160208091040260200160405190810160405280929190818152602001828054611b9990612716565b8015611be65780601f10611bbb57610100808354040283529160200191611be6565b820191906000526020600020905b815481529060010190602001808311611bc957829003601f168201915b505050505081565b600360009054906101000a900473ffffffffffffffffffffffffffffffffffffffff1681565b611c1c611e88565b73ffffffffffffffffffffffffffffffffffffffff16611c3a6110a2565b73ffffffffffffffffffffffffffffffffffffffff1614611c90576040517f08c379a0000000000000000000000000000000000000000000000000000000008152600401611c8790612793565b60405180910390fd5b565b60008060009054906101000a900473ffffffffffffffffffffffffffffffffffffffff169050816000806101000a81548173ffffffffffffffffffffffffffffffffffffffff021916908373ffffffffffffffffffffffffffffffffffffffff1602179055508173ffffffffffffffffffffffffffffffffffffffff168173ffffffffffffffffffffffffffffffffffffffff167f8be0079c531659141344cd1fd0a4f28419497f9722a3daafe3b4186f6b6457e060405160405180910390a35050565b611dec81604051602401611d6a91906127b3565b6040516020818303038152906040527ff82c50f1000000000000000000000000000000000000000000000000000000007bffffffffffffffffffffffffffffffffffffffffffffffffffffffff19166020820180517bffffffffffffffffffffffffffffffffffffffffffffffffffffffff8381831617835250505050611e90565b50565b611e8581604051602401611e039190612131565b6040516020818303038152906040527f41304fac000000000000000000000000000000000000000000000000000000007bffffffffffffffffffffffffffffffffffffffffffffffffffffffff19166020820180517bffffffffffffffffffffffffffffffffffffffffffffffffffffffff8381831617835250505050611e90565b50565b600033905090565b60008151905060006a636f6e736f6c652e6c6f679050602083016000808483855afa5050505050565b600080fd5b6000819050919050565b611ed181611ebe565b8114611edc57600080fd5b50565b600081359050611eee81611ec8565b92915050565b600060208284031215611f0a57611f09611eb9565b5b6000611f1884828501611edf565b91505092915050565b60008060408385031215611f3857611f37611eb9565b5b6000611f4685828601611edf565b9250506020611f5785828601611edf565b9150509250929050565b600080600060608486031215611f7a57611f79611eb9565b5b6000611f8886828701611edf565b9350506020611f9986828701611edf565b9250506040611faa86828701611edf565b9150509250925092565b600073ffffffffffffffffffffffffffffffffffffffff82169050919050565b6000611fdf82611fb4565b9050919050565b611fef81611fd4565b82525050565b600060208201905061200a6000830184611fe6565b92915050565b61201981611ebe565b82525050565b60006040820190506120346000830185612010565b6120416020830184612010565b9392505050565b61205181611fd4565b811461205c57600080fd5b50565b60008135905061206e81612048565b92915050565b60006020828403121561208a57612089611eb9565b5b60006120988482850161205f565b91505092915050565b600081519050919050565b600082825260208201905092915050565b60005b838110156120db5780820151818401526020810190506120c0565b60008484015250505050565b6000601f19601f8301169050919050565b6000612103826120a1565b61210d81856120ac565b935061211d8185602086016120bd565b612126816120e7565b840191505092915050565b6000602082019050818103600083015261214b81846120f8565b905092915050565b6000819050919050565b600061217861217361216e84611fb4565b612153565b611fb4565b9050919050565b600061218a8261215d565b9050919050565b600061219c8261217f565b9050919050565b6121ac81612191565b82525050565b60006020820190506121c760008301846121a3565b92915050565b7f4e487b7100000000000000000000000000000000000000000000000000000000600052601160045260246000fd5b600061220782611ebe565b915061221283611ebe565b925082820190508082111561222a576122296121cd565b5b92915050565b7f4e487b7100000000000000000000000000000000000000000000000000000000600052601260045260246000fd5b600061226a82611ebe565b915061227583611ebe565b92508261228557612284612230565b5b828204905092915050565b60008151905061229f81611ec8565b92915050565b6000602082840312156122bb576122ba611eb9565b5b60006122c984828501612290565b91505092915050565b60006122dd82611ebe565b91506122e883611ebe565b9250828203905081811115612300576122ff6121cd565b5b92915050565b7f4e487b7100000000000000000000000000000000000000000000000000000000600052600160045260246000fd5b600060608201905061234a6000830186611fe6565b6123576020830185611fe6565b6123646040830184612010565b949350505050565b60008115159050919050565b6123818161236c565b811461238c57600080fd5b50565b60008151905061239e81612378565b92915050565b6000602082840312156123ba576123b9611eb9565b5b60006123c88482850161238f565b91505092915050565b60006123dc82611ebe565b91506123e783611ebe565b92508282026123f581611ebe565b9150828204841483151761240c5761240b6121cd565b5b5092915050565b7f546f6b656e20726573657276657320776173206e6f7420300000000000000000600082015250565b60006124496018836120ac565b915061245482612413565b602082019050919050565b600060208201905081810360008301526124788161243c565b9050919050565b7f45544820726573657276657320776173206e6f7420302e000000000000000000600082015250565b60006124b56017836120ac565b91506124c08261247f565b602082019050919050565b600060208201905081810360008301526124e4816124a8565b9050919050565b7f4e6565642065746820746f2063726561746520706f6f6c2e0000000000000000600082015250565b60006125216018836120ac565b915061252c826124eb565b602082019050919050565b6000602082019050818103600083015261255081612514565b9050919050565b7f4e6f74206861766520656e6f75676820746f6b656e7320746f2063726561746560008201527f2074686520706f6f6c0000000000000000000000000000000000000000000000602082015250565b60006125b36029836120ac565b91506125be82612557565b604082019050919050565b600060208201905081810360008301526125e2816125a6565b9050919050565b7f4e65656420746f6b656e7320746f2063726561746520706f6f6c2e0000000000600082015250565b600061261f601b836120ac565b915061262a826125e9565b602082019050919050565b6000602082019050818103600083015261264e81612612565b9050919050565b7f4f776e61626c653a206e6577206f776e657220697320746865207a65726f206160008201527f6464726573730000000000000000000000000000000000000000000000000000602082015250565b60006126b16026836120ac565b91506126bc82612655565b604082019050919050565b600060208201905081810360008301526126e0816126a4565b9050919050565b7f4e487b7100000000000000000000000000000000000000000000000000000000600052602260045260246000fd5b6000600282049050600182168061272e57607f821691505b602082108103612741576127406126e7565b5b50919050565b7f4f776e61626c653a2063616c6c6572206973206e6f7420746865206f776e6572600082015250565b600061277d6020836120ac565b915061278882612747565b602082019050919050565b600060208201905081810360008301526127ac81612770565b9050919050565b60006020820190506127c86000830184612010565b9291505056fea2646970667358221220d6ff696df6142dd35b35783c593f6395d1d777a8711c88b873d768501c921e2b64736f6c63430008110033",
  "linkReferences": {},
  "deployedLinkReferences": {}
}